:100000000C9463000C948B000C948B000C948B006C
:100010000C948B000C948B000C948B000C94D003EC
:100020000C948B000C948B000C948B000C948B0024
:100030000C948B000C948B000C948B000C948B0014
:100040000C9486030C948B000C9452040C942C0496
:100050000C948B000C948B000C948B000C948B00F4
:100060000C948B000C948B000000000023002600F1
:10007000290000000000240027002A0000000008DA
:10008000000201000003040700000000000000005F
:10009000010204081020408001020408102001021F
:1000A0000408102000000000250028002B00040494
:1000B0000404040404040202020202020303030310
:1000C00003030200650611241FBECFEFD8E0DEBF98
:1000D000CDBF11E0A0E0B1E0E6EBFDE002C005908D
:1000E0000D92A232B107D9F721E0A2E2B1E001C03E
:1000F0001D92AD3DB207E1F710E0C3E6D0E004C0C9
:100100002197FE010E94D306C236D107C9F70E948B
:10011000C9040C94D9060C94000090E0FC01E4584A
:10012000FF4F2491FC01E057FF4F3491FC01E25551
:10013000FF4FE491EE23C9F0222339F0233001F17F
:10014000A8F4213019F1223029F1F0E0EE0FFF1F61
:10015000EC55FF4FA591B4918FB7F894EC916111D4
:1001600026C030953E233C938FBF08952730A9F0D9
:100170002830C9F0243049F7809180008F7D03C07A
:10018000809180008F7780938000DFCF84B58F7758
:1001900084BDDBCF84B58F7DFBCF8091B0008F779E
:1001A0008093B000D2CF8091B0008F7DF9CF3E2BED
:1001B000DACFCF93DF9390E0FC01E057FF4F24911B
:1001C00082559F4FFC0184918823D1F090E0880FE5
:1001D000991FFC01EE58FF4FA591B491FC01EC551D
:1001E000FF4FC591D49161110EC09FB7F8948C91C7
:1001F000E22FE0958E238C932881E223E8839FBF32
:10020000DF91CF9108958FB7F894EC91E22BEC93A6
:100210008FBFF6CFCF92DF92EF92FF920F931F9393
:10022000CF938C01809100018B3051F08F3FC1F151
:10023000CF911F910F91FF90EF90DF90CF90089595
:10024000E2ECF0E0C491C7FDF3CF61E08BE00E94E7
:10025000D900C1113BC0980150E040E068E478EE5D
:1002600081E090E00E94B406BA01A9014150510911
:100270006109710985B5887F836085BD47BD8FEFB2
:100280009FEFDC018093D9019093DA01A093DB0109
:10029000B093DC0180916E00826080936E00C8CFC5
:1002A0008BE080930001E2ECF0E0C491CF3F09F4D1
:1002B000BFCFC13009F44EC0A0F1C23009F468C00C
:1002C000C7FDB6CF61E08BE00E94D900980150E0F5
:1002D00040E0C23009F07EC060E970ED83E090E05C
:1002E0000E94B406BA01A90141505109610971097E
:1002F0008091B100887F83608093B1004093B30008
:100300008FEF9FEFDC018093D1019093D201A093F6
:10031000D301B093D401809170008260809370000B
:1003200087CF14BC15BC84B5826084BD85B581605F
:1003300085BDE9EBF0E0E491F0E0EE0FFF1FEC5536
:10034000FF4F85919491EBE9F0E0E491E093D001C7
:10035000C0E07BCF109280001092810080918100DC
:10036000886080938100809181008160809381000A
:10037000E9EBF0E0E491F0E0EE0FFF1FEC55FF4FEA
:1003800085919491EBE9F0E0E491E093CF015DCFAA
:100390001092B0001092B1008091B0008260809302
:1003A000B0008091B10081608093B100E9EBF0E092
:1003B000E491F0E0EE0FFF1FEC55FF4F8591949113
:1003C0009093CE018093CD01EBE9F0E0E491E093CE
:1003D000CC013BCF60E072E18AE790E00E94B40676
:1003E00069017A0181E0C81AD108E108F108A60183
:1003F000C130D9F480918100887F81608093810031
:10040000D0928900C09288008FEF9FEFDC0180932B
:10041000D5019093D601A093D701B093D8018091D4
:100420006F00826080936F0003CFC23009F466CF03
:10043000C111FECE23CF3FB7F89480912B0190914C
:100440002C01A0912D01B0912E0126B5A89B05C0CD
:100450002F3F19F00196A11DB11D3FBFBA2FA92F43
:10046000982F8827BC01CD01620F711D811D911D40
:1004700042E0660F771F881F991F4A95D1F70895AC
:100480009091000189130BC0E2ECF0E0E4919FEF42
:1004900090930001E13049F028F0E23061F060E033
:1004A0000C948D0010926E00FACF90916F009D7F9A
:1004B00090936F00F4CF909170009D7F90937000A7
:1004C00091E09093B0009091B100987F94609093E8
:1004D000B1001092B300E3CFAF92BF92CF92DF9200
:1004E000EF92FF920F931F93CF93DF936C017B01E9
:1004F0008B01040F151FEB015E01AE18BF08C0177A
:10050000D10759F06991D601ED91FC910190F081EC
:10051000E02DC6010995892B79F7C501DF91CF91AF
:100520001F910F91FF90EF90DF90CF90BF90AF9011
:100530000895FC01538D448D252F30E0842F90E0E9
:10054000821B930B541710F0CF96089501970895CE
:10055000FC01918D828D981761F0A28DAE0FBF2F97
:10056000B11D5D968C91928D9F5F9F73928F90E0ED
:1005700008958FEF9FEF0895FC01918D828D98175C
:1005800031F0828DE80FF11D858D90E008958FEF99
:100590009FEF0895FC01918D228D892F90E0805C62
:1005A0009F4F821B91098F73992708958FE291E0E5
:1005B0000E94CA0221E0892B09F420E0822F0895CD
:1005C00080E090E0892B29F00E94D60281110C94E2
:1005D00000000895FC01A48DA80FB92FB11DA35AE6
:1005E000BF4F2C91848D90E001968F739927848F53
:1005F000A689B7892C93A089B1898C918370806476
:100600008C93938D848D981306C00288F389E02D16
:1006100080818F7D80830895EF92FF920F931F93C7
:10062000CF93DF93EC0181E0888F9B8D8C8D9813A5
:100630001AC0E889F989808185FF15C09FB7F894B1
:10064000EE89FF896083E889F989808183708064FD
:1006500080839FBF81E090E0DF91CF911F910F9148
:10066000FF90EF900895F62E0B8D10E00F5F1F4F57
:100670000F731127E02E8C8D8E110CC00FB607FC66
:10068000FACFE889F989808185FFF5CFCE010E94F4
:10069000EA02F1CFEB8DEC0FFD2FF11DE35AFF4F76
:1006A000F0829FB7F8940B8FEA89FB898081806282
:1006B000CFCFCF93DF93EC01888D8823B9F0AA893F
:1006C000BB89E889F9898C9185FD03C0808186FD0D
:1006D0000DC00FB607FCF7CF8C9185FFF2CF80815C
:1006E00085FFEDCFCE010E94EA02E9CFDF91CF91E5
:1006F0000895FC0101900020E9F73197AF01481BF4
:10070000590BBC018FE291E00C946C021F920F9286
:100710000FB60F9211242F933F938F939F93AF9314
:10072000BF938091270190912801A0912901B09158
:100730002A013091260123E0230F2D3758F5019629
:10074000A11DB11D209326018093270190932801BC
:10075000A0932901B0932A0180912B0190912C0143
:10076000A0912D01B0912E010196A11DB11D809384
:100770002B0190932C01A0932D01B0932E01BF91DA
:10078000AF919F918F913F912F910F900FBE0F903E
:100790001F90189526E8230F0296A11DB11DD2CFF8
:1007A0001F920F920FB60F9211242F933F934F93E6
:1007B0005F936F937F938F939F93AF93BF93EF93C9
:1007C000FF938091D1019091D201A091D301B0917A
:1007D000D401892B8A2B8B2BD1F19091CC01E09104
:1007E000CD01F091CE018081892780838091D10154
:1007F0009091D201A091D301B091D401181619069D
:100800001A061B069CF48091D1019091D201A0910F
:10081000D301B091D4010197A109B1098093D1010D
:100820009093D201A093D301B093D401FF91EF91A3
:10083000BF91AF919F918F917F916F915F914F91F8
:100840003F912F910F900FBE0F901F9018958091A0
:1008500000010E944002EACF1F920F920FB60F9242
:1008600011242F933F934F935F936F937F938F93B5
:100870009F93AF93BF93EF93FF938FE291E00E941A
:10088000EA02FF91EF91BF91AF919F918F917F917C
:100890006F915F914F913F912F910F900FBE0F90ED
:1008A0001F9018951F920F920FB60F9211242F933D
:1008B0008F939F93EF93FF93E0913F01F09140015D
:1008C0008081E0914501F091460182FD1BC090813D
:1008D000809148018F5F8F7320914901821741F009
:1008E000E0914801F0E0E15DFE4F958F8093480173
:1008F000FF91EF919F918F912F910F900FBE0F90CD
:100900001F9018958081F4CFCF92DF92EF92FF92E3
:100910000F931F93E82FF92F05C0015011092109EA
:10092000310961F1908196239417B9F305C0015004
:1009300011092109310911F1908196239413F7CF00
:10094000C12CD12CE12CF12C0AC08FEFC81AD80A87
:10095000E80AF80A0C151D052E053F0579F080817F
:100960008623841791F36C2D7D2D8E2D9F2D1F9145
:100970000F91FF90EF90DF90CF90089560E070E0CE
:1009800080E090E01F910F91FF90EF90DF90CF906B
:100990000895CF93DF93CDB7DEB7A1970FB6F89444
:1009A000DEBF0FBECDBF789484B5826084BD84B5B0
:1009B000816084BD85B5826085BD85B5816085BD5A
:1009C00080916E00816080936E0010928100809112
:1009D000810082608093810080918100816080939A
:1009E0008100809180008160809380008091B100BF
:1009F00084608093B1008091B00081608093B000EA
:100A000080917A00846080937A0080917A0082607D
:100A100080937A0080917A00816080937A0080913F
:100A20007A00806880937A001092C10061E08CE0C7
:100A30000E94D90061E08DE00E94D90061E08AE067
:100A40000E94D90061E08BE00E94D90061E083E060
:100A50000E94D90060E082E00E94D900E0913F014D
:100A6000F091400182E08083E0913B01F0913C01F4
:100A70001082E0913D01F0913E018FEC8083109255
:100A80004701E0914301F091440186E08083E091C9
:100A90004101F0914201808180618083E0914101B8
:100AA000F0914201808188608083E0914101F09162
:100AB0004201808180688083E0914101F091420190
:100AC00080818F7D80832AE0422E512C612C712CF5
:100AD00030E0232E30E0332E61E083E00E948D0071
:100AE00083E290E00197F1F760E083E00E948D00DF
:100AF000E2E9F0E06491E0EBF0E08491E82FF0E0CF
:100B0000EE0FFF1FE859FF4F8591949100E412E426
:100B10002FE030E0462F0E948404611571058105A5
:100B2000910529F06F5F7F4F8F4F9F4F9F702AE392
:100B300030E040E050E00E94B40620932201309360
:100B40002301409324015093250183E191E00E9409
:100B50007903C0902201D0902301E0902401F0900D
:100B60002501F7FE77C06DE28FE291E00E940C0351
:100B700022273327A9012C193D094E095F0919A223
:100B8000CE0181967C01CA01B901A30192010E94A4
:100B90009206605DF70162937F01211531054105E1
:100BA000510589F7E114F10419F0C7010E94790396
:100BB0008EE191E00E9479038091220190912301BE
:100BC000A0912401B091250188309105A105B105BE
:100BD0000CF056C061E08CE00E948D0060E08DE07A
:100BE0000E948D0060E08AE00E948D0080ED97E019
:100BF0000E940A010E941B024B015C018AEFC82E71
:100C0000D12CE12CF12C0E941B02681979098A0968
:100C10009B09683E734081059105A8F3F1E0CF1A66
:100C2000D108E108F10828EE820E23E0921EA11CF3
:100C3000B11CC114D104E104F10429F721143104D9
:100C400009F44ACF0E94D602882309F445CF0E94B6
:100C5000000042CFA701960119A2CE0181967C0126
:100C6000CA01B901A30192010E949206605DF701D9
:100C700062937F01211531054105510589F792CF16
:100C80000997A109B10960E00B97A105B10570F4BE
:100C90008CE00E948D0060E08DE00E948D0061E09C
:100CA0008AE00E948D0088EE93E0A2CF8CE00E9443
:100CB0008D0061E08DE00E948D0060E08AE00E947E
:100CC0008D008BE00E94400295CFEFE2F1E01382AD
:100CD000128288EE93E0A0E0B0E084839583A6833F
:100CE000B78385E091E09183808385EC90E09587E0
:100CF000848784EC90E09787868780EC90E0918BE6
:100D0000808B81EC90E0938B828B82EC90E0958BD2
:100D1000848B86EC90E0978B868B118E128E138ECF
:100D2000148E0895A1E21A2EAA1BBB1BFD010DC053
:100D3000AA1FBB1FEE1FFF1FA217B307E407F5078B
:100D400020F0A21BB30BE40BF50B661F771F881F67
:100D5000991F1A9469F760957095809590959B01FD
:100D6000AC01BD01CF010895052E97FB1EF4009440
:100D70000E94CB0657FD07D00E94920607FC03D0C5
:100D80004EF40C94CB0650954095309521953F4FED
:100D90004F4F5F4F089590958095709561957F4F67
:100DA0008F4F9F4F0895EE0FFF1F0590F491E02D98
:060DB0000994F894FFCF46
:100DB600FF000000000C036C0299025903CA02A846
:100DC60002BC0244697374616E63653A20000D0AC1
:020DD60000001B
:00000001FF
